{
  "contractName": "Escrow",
  "abi": [
    {
      "inputs": [
        {
          "internalType": "address",
          "name": "_buyer",
          "type": "address"
        },
        {
          "internalType": "address payable",
          "name": "_seller",
          "type": "address"
        },
        {
          "internalType": "uint256",
          "name": "_amount",
          "type": "uint256"
        },
        {
          "internalType": "address",
          "name": "_admin",
          "type": "address"
        }
      ],
      "stateMutability": "nonpayable",
      "type": "constructor"
    },
    {
      "inputs": [],
      "name": "admin",
      "outputs": [
        {
          "internalType": "address",
          "name": "",
          "type": "address"
        }
      ],
      "stateMutability": "view",
      "type": "function",
      "constant": true
    },
    {
      "inputs": [],
      "name": "amount",
      "outputs": [
        {
          "internalType": "uint256",
          "name": "",
          "type": "uint256"
        }
      ],
      "stateMutability": "view",
      "type": "function",
      "constant": true
    },
    {
      "inputs": [],
      "name": "buyer",
      "outputs": [
        {
          "internalType": "address",
          "name": "",
          "type": "address"
        }
      ],
      "stateMutability": "view",
      "type": "function",
      "constant": true
    },
    {
      "inputs": [],
      "name": "isDelivered",
      "outputs": [
        {
          "internalType": "bool",
          "name": "",
          "type": "bool"
        }
      ],
      "stateMutability": "view",
      "type": "function",
      "constant": true
    },
    {
      "inputs": [],
      "name": "isDisputed",
      "outputs": [
        {
          "internalType": "bool",
          "name": "",
          "type": "bool"
        }
      ],
      "stateMutability": "view",
      "type": "function",
      "constant": true
    },
    {
      "inputs": [],
      "name": "seller",
      "outputs": [
        {
          "internalType": "address payable",
          "name": "",
          "type": "address"
        }
      ],
      "stateMutability": "view",
      "type": "function",
      "constant": true
    },
    {
      "inputs": [],
      "name": "deposit",
      "outputs": [],
      "stateMutability": "payable",
      "type": "function",
      "payable": true
    },
    {
      "inputs": [],
      "name": "confirmDelivery",
      "outputs": [],
      "stateMutability": "nonpayable",
      "type": "function"
    },
    {
      "inputs": [],
      "name": "raiseDispute",
      "outputs": [],
      "stateMutability": "nonpayable",
      "type": "function"
    },
    {
      "inputs": [
        {
          "internalType": "bool",
          "name": "releaseFunds",
          "type": "bool"
        }
      ],
      "name": "resolveDispute",
      "outputs": [],
      "stateMutability": "nonpayable",
      "type": "function"
    }
  ],
  "bytecode": "0x608060405234801561000f575f5ffd5b50604051610ef4380380610ef4833981810160405281019061003191906101ff565b835f5f6101000a81548173ffffffffffffffffffffffffffffffffffffffff021916908373ffffffffffffffffffffffffffffffffffffffff1602179055508260015f6101000a81548173ffffffffffffffffffffffffffffffffffffffff021916908373ffffffffffffffffffffffffffffffffffffffff160217905550816003819055508060025f6101000a81548173ffffffffffffffffffffffffffffffffffffffff021916908373ffffffffffffffffffffffffffffffffffffffff1602179055505f60045f6101000a81548160ff0219169083151502179055505f600460016101000a81548160ff02191690831515021790555050505050610263565b5f5ffd5b5f73ffffffffffffffffffffffffffffffffffffffff82169050919050565b5f61016082610137565b9050919050565b61017081610156565b811461017a575f5ffd5b50565b5f8151905061018b81610167565b92915050565b5f61019b82610137565b9050919050565b6101ab81610191565b81146101b5575f5ffd5b50565b5f815190506101c6816101a2565b92915050565b5f819050919050565b6101de816101cc565b81146101e8575f5ffd5b50565b5f815190506101f9816101d5565b92915050565b5f5f5f5f6080858703121561021757610216610133565b5b5f6102248782880161017d565b9450506020610235878288016101b8565b9350506040610246878288016101eb565b92505060606102578782880161017d565b91505092959194509250565b610c84806102705f395ff3fe608060405260043610610090575f3560e01c8063765f744c11610058578063765f744c1461013e57806389e1e82a14610168578063aa8c217c14610190578063d0e30db0146101ba578063f851a440146101c457610090565b80630335729e1461009457806308551a53146100be5780635e10177b146100e85780636daa2d44146100fe5780637150d8ae14610114575b5f5ffd5b34801561009f575f5ffd5b506100a86101ee565b6040516100b591906107a4565b60405180910390f35b3480156100c9575f5ffd5b506100d2610201565b6040516100df91906107fc565b60405180910390f35b3480156100f3575f5ffd5b506100fc610226565b005b348015610109575f5ffd5b50610112610387565b005b34801561011f575f5ffd5b50610128610481565b6040516101359190610835565b60405180910390f35b348015610149575f5ffd5b506101526104a5565b60405161015f91906107a4565b60405180910390f35b348015610173575f5ffd5b5061018e6004803603810190610189919061087c565b6104b7565b005b34801561019b575f5ffd5b506101a461068b565b6040516101b191906108bf565b60405180910390f35b6101c2610691565b005b3480156101cf575f5ffd5b506101d8610765565b6040516101e59190610835565b60405180910390f35b600460019054906101000a900460ff1681565b60015f9054906101000a900473ffffffffffffffffffffffffffffffffffffffff1681565b5f5f9054906101000a900473ffffffffffffffffffffffffffffffffffffffff1673ffffffffffffffffffffffffffffffffffffffff163373ffffffffffffffffffffffffffffffffffffffff16146102b4576040517f08c379a00000000000000000000000000000000000000000000000000000000081526004016102ab90610932565b60405180910390fd5b600460019054906101000a900460ff1615610304576040517f08c379a00000000000000000000000000000000000000000000000000000000081526004016102fb906109c0565b60405180910390fd5b600160045f6101000a81548160ff02191690831515021790555060015f9054906101000a900473ffffffffffffffffffffffffffffffffffffffff1673ffffffffffffffffffffffffffffffffffffffff166108fc60035490811502906040515f60405180830381858888f19350505050158015610384573d5f5f3e3d5ffd5b50565b5f5f9054906101000a900473ffffffffffffffffffffffffffffffffffffffff1673ffffffffffffffffffffffffffffffffffffffff163373ffffffffffffffffffffffffffffffffffffffff1614610415576040517f08c379a000000000000000000000000000000000000000000000000000000000815260040161040c90610a28565b60405180910390fd5b60045f9054906101000a900460ff1615610464576040517f08c379a000000000000000000000000000000000000000000000000000000000815260040161045b90610a90565b60405180910390fd5b6001600460016101000a81548160ff021916908315150217905550565b5f5f9054906101000a900473ffffffffffffffffffffffffffffffffffffffff1681565b60045f9054906101000a900460ff1681565b60025f9054906101000a900473ffffffffffffffffffffffffffffffffffffffff1673ffffffffffffffffffffffffffffffffffffffff163373ffffffffffffffffffffffffffffffffffffffff1614610546576040517f08c379a000000000000000000000000000000000000000000000000000000000815260040161053d90610af8565b60405180910390fd5b600460019054906101000a900460ff16610595576040517f08c379a000000000000000000000000000000000000000000000000000000000815260040161058c90610b60565b60405180910390fd5b80156106075760015f9054906101000a900473ffffffffffffffffffffffffffffffffffffffff1673ffffffffffffffffffffffffffffffffffffffff166108fc60035490811502906040515f60405180830381858888f19350505050158015610601573d5f5f3e3d5ffd5b5061066e565b5f5f9054906101000a900473ffffffffffffffffffffffffffffffffffffffff1673ffffffffffffffffffffffffffffffffffffffff166108fc60035490811502906040515f60405180830381858888f1935050505015801561066c573d5f5f3e3d5ffd5b505b5f600460016101000a81548160ff02191690831515021790555050565b60035481565b5f5f9054906101000a900473ffffffffffffffffffffffffffffffffffffffff1673ffffffffffffffffffffffffffffffffffffffff163373ffffffffffffffffffffffffffffffffffffffff161461071f576040517f08c379a000000000000000000000000000000000000000000000000000000000815260040161071690610bc8565b60405180910390fd5b6003543414610763576040517f08c379a000000000000000000000000000000000000000000000000000000000815260040161075a90610c30565b60405180910390fd5b565b60025f9054906101000a900473ffffffffffffffffffffffffffffffffffffffff1681565b5f8115159050919050565b61079e8161078a565b82525050565b5f6020820190506107b75f830184610795565b92915050565b5f73ffffffffffffffffffffffffffffffffffffffff82169050919050565b5f6107e6826107bd565b9050919050565b6107f6816107dc565b82525050565b5f60208201905061080f5f8301846107ed565b92915050565b5f61081f826107bd565b9050919050565b61082f81610815565b82525050565b5f6020820190506108485f830184610826565b92915050565b5f5ffd5b61085b8161078a565b8114610865575f5ffd5b50565b5f8135905061087681610852565b92915050565b5f602082840312156108915761089061084e565b5b5f61089e84828501610868565b91505092915050565b5f819050919050565b6108b9816108a7565b82525050565b5f6020820190506108d25f8301846108b0565b92915050565b5f82825260208201905092915050565b7f4f6e6c792062757965722063616e20636f6e6669726d2064656c6976657279005f82015250565b5f61091c601f836108d8565b9150610927826108e8565b602082019050919050565b5f6020820190508181035f83015261094981610910565b9050919050565b7f43616e6e6f7420636f6e6669726d2061206469737075746564207472616e73615f8201527f6374696f6e000000000000000000000000000000000000000000000000000000602082015250565b5f6109aa6025836108d8565b91506109b582610950565b604082019050919050565b5f6020820190508181035f8301526109d78161099e565b9050919050565b7f4f6e6c792062757965722063616e2072616973652061206469737075746500005f82015250565b5f610a12601e836108d8565b9150610a1d826109de565b602082019050919050565b5f6020820190508181035f830152610a3f81610a06565b9050919050565b7f43616e6e6f7420646973707574652061667465722064656c69766572790000005f82015250565b5f610a7a601d836108d8565b9150610a8582610a46565b602082019050919050565b5f6020820190508181035f830152610aa781610a6e565b9050919050565b7f4f6e6c792061646d696e2063616e207265736f6c7665206469737075746573005f82015250565b5f610ae2601f836108d8565b9150610aed82610aae565b602082019050919050565b5f6020820190508181035f830152610b0f81610ad6565b9050919050565b7f4e6f206469737075746520746f207265736f6c766500000000000000000000005f82015250565b5f610b4a6015836108d8565b9150610b5582610b16565b602082019050919050565b5f6020820190508181035f830152610b7781610b3e565b9050919050565b7f4f6e6c792062757965722063616e206465706f7369742066756e6473000000005f82015250565b5f610bb2601c836108d8565b9150610bbd82610b7e565b602082019050919050565b5f6020820190508181035f830152610bdf81610ba6565b9050919050565b7f496e636f727265637420616d6f756e74000000000000000000000000000000005f82015250565b5f610c1a6010836108d8565b9150610c2582610be6565b602082019050919050565b5f6020820190508181035f830152610c4781610c0e565b905091905056fea26469706673582212201ecc5365974748753139ce22a783e899842170e9c72111452456b45f83e5df5c64736f6c634300081c0033",
  "immutableReferences": {},
  "source": "// SPDX-License-Identifier: MIT\npragma solidity ^0.8.18;\n\ncontract Escrow {\n    address public buyer;\n    address payable public seller;\n    address public admin;\n    uint256 public amount;\n    bool public isDelivered;\n    bool public isDisputed;\n\n    constructor(address _buyer, address payable _seller, uint256 _amount, address _admin) {\n        buyer = _buyer;\n        seller = _seller;\n        amount = _amount;\n        admin = _admin;\n        isDelivered = false;\n        isDisputed = false;\n    }\n\n    function deposit() public payable {\n        require(msg.sender == buyer, \"Only buyer can deposit funds\");\n        require(msg.value == amount, \"Incorrect amount\");\n    }\n\n    function confirmDelivery() public {\n        require(msg.sender == buyer, \"Only buyer can confirm delivery\");\n        require(!isDisputed, \"Cannot confirm a disputed transaction\");\n        isDelivered = true;\n        seller.transfer(amount);\n    }\n\n    function raiseDispute() public {\n        require(msg.sender == buyer, \"Only buyer can raise a dispute\");\n        require(!isDelivered, \"Cannot dispute after delivery\");\n        isDisputed = true;\n    }\n\n    function resolveDispute(bool releaseFunds) public {\n        require(msg.sender == admin, \"Only admin can resolve disputes\");\n        require(isDisputed, \"No dispute to resolve\");\n\n        if (releaseFunds) {\n            seller.transfer(amount);\n        } else {\n            payable(buyer).transfer(amount);\n        }\n\n        isDisputed = false;\n    }\n}\n",
  "sourcePath": "/Users/toobanaseer/Downloads/CODE/multi-vendor-platform/blockchain/contracts/Escrow.sol",
  "compiler": {
    "name": "solc",
    "version": "0.8.28+commit.7893614a.Emscripten.clang"
  },
  "schemaVersion": "3.4.10",
  "updatedAt": "2025-04-14T18:55:15.050Z",
  "networkType": "ethereum",
  "devdoc": {
    "kind": "dev",
    "methods": {},
    "version": 1
  },
  "userdoc": {
    "kind": "user",
    "methods": {},
    "version": 1
  }
}